{
  "contractName": "ItemRepo",
  "abi": [
    {
      "constant": true,
      "inputs": [
        {
          "name": "",
          "type": "address"
        }
      ],
      "name": "allowedEditors",
      "outputs": [
        {
          "name": "",
          "type": "bool"
        }
      ],
      "payable": false,
      "stateMutability": "view",
      "type": "function"
    },
    {
      "constant": true,
      "inputs": [
        {
          "name": "",
          "type": "bytes32"
        },
        {
          "name": "",
          "type": "uint256"
        }
      ],
      "name": "data",
      "outputs": [
        {
          "name": "",
          "type": "bytes32"
        }
      ],
      "payable": false,
      "stateMutability": "view",
      "type": "function"
    },
    {
      "constant": true,
      "inputs": [],
      "name": "owner",
      "outputs": [
        {
          "name": "",
          "type": "address"
        }
      ],
      "payable": false,
      "stateMutability": "view",
      "type": "function"
    },
    {
      "constant": true,
      "inputs": [
        {
          "name": "",
          "type": "bytes32"
        }
      ],
      "name": "numOfDataChanges",
      "outputs": [
        {
          "name": "",
          "type": "uint256"
        }
      ],
      "payable": false,
      "stateMutability": "view",
      "type": "function"
    },
    {
      "constant": false,
      "inputs": [
        {
          "name": "_owner",
          "type": "address"
        }
      ],
      "name": "init",
      "outputs": [],
      "payable": false,
      "stateMutability": "nonpayable",
      "type": "function"
    },
    {
      "constant": false,
      "inputs": [
        {
          "name": "editor",
          "type": "address"
        }
      ],
      "name": "addEditor",
      "outputs": [],
      "payable": false,
      "stateMutability": "nonpayable",
      "type": "function"
    },
    {
      "constant": false,
      "inputs": [
        {
          "name": "editor",
          "type": "address"
        }
      ],
      "name": "removeEditor",
      "outputs": [],
      "payable": false,
      "stateMutability": "nonpayable",
      "type": "function"
    },
    {
      "constant": false,
      "inputs": [
        {
          "name": "_itemHashes",
          "type": "bytes32[]"
        },
        {
          "name": "_ipfsHashes",
          "type": "bytes32[]"
        }
      ],
      "name": "addUpdateItemData",
      "outputs": [],
      "payable": false,
      "stateMutability": "nonpayable",
      "type": "function"
    },
    {
      "constant": true,
      "inputs": [
        {
          "name": "itemHash",
          "type": "bytes32"
        }
      ],
      "name": "getItemData",
      "outputs": [
        {
          "name": "_data",
          "type": "bytes32"
        }
      ],
      "payable": false,
      "stateMutability": "view",
      "type": "function"
    },
    {
      "constant": true,
      "inputs": [],
      "name": "getAddress",
      "outputs": [
        {
          "name": "",
          "type": "address"
        }
      ],
      "payable": false,
      "stateMutability": "view",
      "type": "function"
    }
  ],
  "bytecode": "0x608060405234801561001057600080fd5b50610b10806100206000396000f3006080604052600436106100a4576000357c0100000000000000000000000000000000000000000000000000000000900463ffffffff16806319ab453c146100a95780632d55feaf146100ec57806338cc48311461012f5780636c3a690c146101865780638d12c426146101e15780638da5cb5b14610238578063a8fd95e71461028f578063d32467a0146102d4578063d8ec19581461037d578063e5975bdc146103ca575b600080fd5b3480156100b557600080fd5b506100ea600480360381019080803573ffffffffffffffffffffffffffffffffffffffff16906020019092919050505061040d565b005b3480156100f857600080fd5b5061012d600480360381019080803573ffffffffffffffffffffffffffffffffffffffff169060200190929190505050610611565b005b34801561013b57600080fd5b5061014461075b565b604051808273ffffffffffffffffffffffffffffffffffffffff1673ffffffffffffffffffffffffffffffffffffffff16815260200191505060405180910390f35b34801561019257600080fd5b506101c7600480360381019080803573ffffffffffffffffffffffffffffffffffffffff169060200190929190505050610763565b604051808215151515815260200191505060405180910390f35b3480156101ed57600080fd5b5061021a600480360381019080803560001916906020019092919080359060200190929190505050610783565b60405180826000191660001916815260200191505060405180910390f35b34801561024457600080fd5b5061024d6107a8565b604051808273ffffffffffffffffffffffffffffffffffffffff1673ffffffffffffffffffffffffffffffffffffffff16815260200191505060405180910390f35b34801561029b57600080fd5b506102be60048036038101908080356000191690602001909291905050506107cd565b6040518082815260200191505060405180910390f35b3480156102e057600080fd5b5061037b60048036038101908080359060200190820180359060200190808060200260200160405190810160405280939291908181526020018383602002808284378201915050505050509192919290803590602001908201803590602001908080602002602001604051908101604052809392919081815260200183836020028082843782019150505050505091929192905050506107e5565b005b34801561038957600080fd5b506103ac6004803603810190808035600019169060200190929190505050610946565b60405180826000191660001916815260200191505060405180910390f35b3480156103d657600080fd5b5061040b600480360381019080803573ffffffffffffffffffffffffffffffffffffffff16906020019092919050505061099a565b005b600073ffffffffffffffffffffffffffffffffffffffff166000809054906101000a900473ffffffffffffffffffffffffffffffffffffffff1673ffffffffffffffffffffffffffffffffffffffff161415156104d2576040517f08c379a00000000000000000000000000000000000000000000000000000000081526004018080602001828103825260118152602001807f416c726561647920686173206f776e657200000000000000000000000000000081525060200191505060405180910390fd5b600073ffffffffffffffffffffffffffffffffffffffff168173ffffffffffffffffffffffffffffffffffffffff1614151515610577576040517f08c379a00000000000000000000000000000000000000000000000000000000081526004018080602001828103825260158152602001807f506172616d285f6f776e657229206973206e756c6c000000000000000000000081525060200191505060405180910390fd5b806000806101000a81548173ffffffffffffffffffffffffffffffffffffffff021916908373ffffffffffffffffffffffffffffffffffffffff16021790555060018060008373ffffffffffffffffffffffffffffffffffffffff1673ffffffffffffffffffffffffffffffffffffffff16815260200190815260200160002060006101000a81548160ff02191690831515021790555050565b6000809054906101000a900473ffffffffffffffffffffffffffffffffffffffff1673ffffffffffffffffffffffffffffffffffffffff163373ffffffffffffffffffffffffffffffffffffffff1614151561066c57600080fd5b600073ffffffffffffffffffffffffffffffffffffffff168173ffffffffffffffffffffffffffffffffffffffff16141515156106a857600080fd5b600160008273ffffffffffffffffffffffffffffffffffffffff1673ffffffffffffffffffffffffffffffffffffffff16815260200190815260200160002060009054906101000a900460ff16151561070057600080fd5b6000600160008373ffffffffffffffffffffffffffffffffffffffff1673ffffffffffffffffffffffffffffffffffffffff16815260200190815260200160002060006101000a81548160ff02191690831515021790555050565b600030905090565b60016020528060005260406000206000915054906101000a900460ff1681565b6002602052816000526040600020602052806000526040600020600091509150505481565b6000809054906101000a900473ffffffffffffffffffffffffffffffffffffffff1681565b60036020528060005260406000206000915090505481565b6000600160003373ffffffffffffffffffffffffffffffffffffffff1673ffffffffffffffffffffffffffffffffffffffff16815260200190815260200160002060009054906101000a900460ff16151561083f57600080fd5b8151835114151561084f57600080fd5b600090505b825181101561094157818181518110151561086b57fe5b9060200190602002015160026000858481518110151561088757fe5b906020019060200201516000191660001916815260200190815260200160002060006003600087868151811015156108bb57fe5b9060200190602002015160001916600019168152602001908152602001600020548152602001908152602001600020816000191690555060036000848381518110151561090457fe5b9060200190602002015160001916600019168152602001908152602001600020600081548092919060010191905055508080600101915050610854565b505050565b60006002600083600019166000191681526020019081526020016000206000600160036000866000191660001916815260200190815260200160002054038152602001908152602001600020549050919050565b6000809054906101000a900473ffffffffffffffffffffffffffffffffffffffff1673ffffffffffffffffffffffffffffffffffffffff163373ffffffffffffffffffffffffffffffffffffffff161415156109f557600080fd5b600073ffffffffffffffffffffffffffffffffffffffff168173ffffffffffffffffffffffffffffffffffffffff1614151515610a3157600080fd5b600160008273ffffffffffffffffffffffffffffffffffffffff1673ffffffffffffffffffffffffffffffffffffffff16815260200190815260200160002060009054906101000a900460ff16151515610a8a57600080fd5b60018060008373ffffffffffffffffffffffffffffffffffffffff1673ffffffffffffffffffffffffffffffffffffffff16815260200190815260200160002060006101000a81548160ff021916908315150217905550505600a165627a7a72305820f0e1b15a46d71da589a32e8eac1dd435657f5a1d4d16b591161ca8ab2e5f53b20029",
  "source": "pragma solidity 0.4.24;\n\ncontract ItemRepo {\n\n    address public owner;\n\n    mapping(address=>bool) public allowedEditors;\n\n    // product hash, 0-... num of data changes, ipfs hash\n    mapping(bytes32=>mapping(uint256=>bytes32)) public data;\n    mapping(bytes32=>uint256) public numOfDataChanges;\n\n    modifier onlyOwner {\n        require(msg.sender == owner);\n        _;\n    }\n\n    modifier isEditor {\n        require(allowedEditors[msg.sender]);\n        _;\n    }\n\n    function init(address _owner) public {\n        require(owner == address(0), \"Already has owner\");\n        require(_owner != address(0), \"Param(_owner) is null\");\n\n        owner = _owner;\n        allowedEditors[_owner] = true;\n    }\n\n    function addEditor(address editor) public onlyOwner {\n        require(editor != address(0));\n        require(!allowedEditors[editor]);\n\n        allowedEditors[editor] = true;\n    }\n\n    function removeEditor(address editor) public onlyOwner {\n        require(editor != address(0));\n        require(allowedEditors[editor]);\n\n        allowedEditors[editor] = false;\n    }\n\n\n    function addUpdateItemData(bytes32[] _itemHashes, bytes32[] _ipfsHashes) public isEditor {\n        require(_itemHashes.length == _ipfsHashes.length);\n\n        for(uint256 i = 0; i < _itemHashes.length; i++){\n            data[_itemHashes[i]][numOfDataChanges[_itemHashes[i]]] = _ipfsHashes[i];\n            numOfDataChanges[_itemHashes[i]]++;\n        }\n    }\n\n    function getItemData(bytes32 itemHash) public view returns(bytes32 _data){\n        return data[itemHash][numOfDataChanges[itemHash] - 1];\n    }\n\n\n    function getAddress() public view returns(address){\n        return address(this);\n    }\n}",
  "sourcePath": "/Users/alekseytsekov/Documents/projects/supplyChainDemo/smartContracts/contracts/repos/ItemRepo.sol",
  "compiler": {
    "name": "solc",
    "version": "0.4.24+commit.e67f0147.Emscripten.clang"
  },
  "schemaVersion": "2.0.1",
  "updatedAt": "2018-07-23T14:31:42.793Z"
}