{
  "contractName": "Worker",
  "abi": [
    {
      "constant": true,
      "inputs": [],
      "name": "name",
      "outputs": [
        {
          "name": "",
          "type": "bytes32"
        }
      ],
      "payable": false,
      "stateMutability": "view",
      "type": "function"
    },
    {
      "constant": true,
      "inputs": [],
      "name": "repo",
      "outputs": [
        {
          "name": "",
          "type": "address"
        }
      ],
      "payable": false,
      "stateMutability": "view",
      "type": "function"
    },
    {
      "constant": true,
      "inputs": [
        {
          "name": "",
          "type": "address"
        }
      ],
      "name": "callers",
      "outputs": [
        {
          "name": "",
          "type": "bool"
        }
      ],
      "payable": false,
      "stateMutability": "view",
      "type": "function"
    },
    {
      "constant": true,
      "inputs": [],
      "name": "owner",
      "outputs": [
        {
          "name": "",
          "type": "address"
        }
      ],
      "payable": false,
      "stateMutability": "view",
      "type": "function"
    },
    {
      "anonymous": false,
      "inputs": [
        {
          "indexed": true,
          "name": "_worker",
          "type": "address"
        }
      ],
      "name": "DoWork",
      "type": "event"
    },
    {
      "constant": false,
      "inputs": [
        {
          "name": "_owner",
          "type": "address"
        },
        {
          "name": "_name",
          "type": "bytes32"
        }
      ],
      "name": "init",
      "outputs": [],
      "payable": false,
      "stateMutability": "nonpayable",
      "type": "function"
    },
    {
      "constant": false,
      "inputs": [
        {
          "name": "_caller",
          "type": "address"
        }
      ],
      "name": "addCaller",
      "outputs": [],
      "payable": false,
      "stateMutability": "nonpayable",
      "type": "function"
    },
    {
      "constant": false,
      "inputs": [
        {
          "name": "_repo",
          "type": "address"
        }
      ],
      "name": "addRepo",
      "outputs": [],
      "payable": false,
      "stateMutability": "nonpayable",
      "type": "function"
    },
    {
      "constant": false,
      "inputs": [
        {
          "name": "_itemHashes",
          "type": "bytes32[]"
        },
        {
          "name": "_ipfsHashes",
          "type": "bytes32[]"
        }
      ],
      "name": "doWork",
      "outputs": [],
      "payable": false,
      "stateMutability": "nonpayable",
      "type": "function"
    }
  ],
  "bytecode": "0x608060405234801561001057600080fd5b50610a3d806100206000396000f30060806040526004361061008e576000357c0100000000000000000000000000000000000000000000000000000000900463ffffffff16806306fdde03146100935780632cc0b254146100c657806356ff312214610117578063747293fb1461016e5780637bbf4a3f146101b15780638da5cb5b1461020c578063bfbc907c14610263578063df5120f51461030c575b600080fd5b34801561009f57600080fd5b506100a861034f565b60405180826000191660001916815260200191505060405180910390f35b3480156100d257600080fd5b50610115600480360381019080803573ffffffffffffffffffffffffffffffffffffffff1690602001909291908035600019169060200190929190505050610355565b005b34801561012357600080fd5b5061012c610566565b604051808273ffffffffffffffffffffffffffffffffffffffff1673ffffffffffffffffffffffffffffffffffffffff16815260200191505060405180910390f35b34801561017a57600080fd5b506101af600480360381019080803573ffffffffffffffffffffffffffffffffffffffff16906020019092919050505061058c565b005b3480156101bd57600080fd5b506101f2600480360381019080803573ffffffffffffffffffffffffffffffffffffffff169060200190929190505050610704565b604051808215151515815260200191505060405180910390f35b34801561021857600080fd5b50610221610724565b604051808273ffffffffffffffffffffffffffffffffffffffff1673ffffffffffffffffffffffffffffffffffffffff16815260200191505060405180910390f35b34801561026f57600080fd5b5061030a6004803603810190808035906020019082018035906020019080806020026020016040519081016040528093929190818152602001838360200280828437820191505050505050919291929080359060200190820180359060200190808060200260200160405190810160405280939291908181526020018383602002808284378201915050505050509192919290505050610749565b005b34801561031857600080fd5b5061034d600480360381019080803573ffffffffffffffffffffffffffffffffffffffff1690602001909291905050506108d9565b005b60025481565b600073ffffffffffffffffffffffffffffffffffffffff168273ffffffffffffffffffffffffffffffffffffffff16141515156103fa576040517f08c379a00000000000000000000000000000000000000000000000000000000081526004018080602001828103825260158152602001807f506172616d285f6f776e657229206973206e756c6c000000000000000000000081525060200191505060405180910390fd5b600073ffffffffffffffffffffffffffffffffffffffff166000809054906101000a900473ffffffffffffffffffffffffffffffffffffffff1673ffffffffffffffffffffffffffffffffffffffff161415156104bf576040517f08c379a00000000000000000000000000000000000000000000000000000000081526004018080602001828103825260118152602001807f416c726561647920686173206f776e657200000000000000000000000000000081525060200191505060405180910390fd5b816000806101000a81548173ffffffffffffffffffffffffffffffffffffffff021916908373ffffffffffffffffffffffffffffffffffffffff16021790555080600281600019169055506001600360008473ffffffffffffffffffffffffffffffffffffffff1673ffffffffffffffffffffffffffffffffffffffff16815260200190815260200160002060006101000a81548160ff0219169083151502179055505050565b600160009054906101000a900473ffffffffffffffffffffffffffffffffffffffff1681565b6000809054906101000a900473ffffffffffffffffffffffffffffffffffffffff1673ffffffffffffffffffffffffffffffffffffffff163373ffffffffffffffffffffffffffffffffffffffff161415156105e757600080fd5b600360008273ffffffffffffffffffffffffffffffffffffffff1673ffffffffffffffffffffffffffffffffffffffff16815260200190815260200160002060009054906101000a900460ff161515156106a9576040517f08c379a00000000000000000000000000000000000000000000000000000000081526004018080602001828103825260148152602001807f43616c6c6572206973207265676974657265642100000000000000000000000081525060200191505060405180910390fd5b6001600360008373ffffffffffffffffffffffffffffffffffffffff1673ffffffffffffffffffffffffffffffffffffffff16815260200190815260200160002060006101000a81548160ff02191690831515021790555050565b60036020528060005260406000206000915054906101000a900460ff1681565b6000809054906101000a900473ffffffffffffffffffffffffffffffffffffffff1681565b60008151835114151561075b57600080fd5b600160009054906101000a900473ffffffffffffffffffffffffffffffffffffffff1690508073ffffffffffffffffffffffffffffffffffffffff1663d32467a084846040518363ffffffff167c0100000000000000000000000000000000000000000000000000000000028152600401808060200180602001838103835285818151815260200191508051906020019060200280838360005b838110156108105780820151818401526020810190506107f5565b50505050905001838103825284818151815260200191508051906020019060200280838360005b83811015610852578082015181840152602081019050610837565b50505050905001945050505050600060405180830381600087803b15801561087957600080fd5b505af115801561088d573d6000803e3d6000fd5b505050503073ffffffffffffffffffffffffffffffffffffffff167fa8554250a8e3ae823847a69e6c4047bb4b1b642cf4d6db4af558958ae22f3bc360405160405180910390a2505050565b6000809054906101000a900473ffffffffffffffffffffffffffffffffffffffff1673ffffffffffffffffffffffffffffffffffffffff163373ffffffffffffffffffffffffffffffffffffffff1614151561093457600080fd5b600073ffffffffffffffffffffffffffffffffffffffff16600160009054906101000a900473ffffffffffffffffffffffffffffffffffffffff1673ffffffffffffffffffffffffffffffffffffffff1614151561099157600080fd5b600073ffffffffffffffffffffffffffffffffffffffff168173ffffffffffffffffffffffffffffffffffffffff16141515156109cd57600080fd5b80600160006101000a81548173ffffffffffffffffffffffffffffffffffffffff021916908373ffffffffffffffffffffffffffffffffffffffff160217905550505600a165627a7a72305820b89b72133713e51a7a69b42d96b864e2cb99cbc40ceccdd17e828d507107b8720029",
  "source": "pragma solidity 0.4.24;\n\nimport \"./../repos/ItemRepo.sol\";\n\ncontract Worker {\n\n    address public owner;\n    address public repo;\n    bytes32 public name;\n\n    //bytes32 public expectedState;\n    event DoWork(address indexed _worker);\n\n    mapping(address=>bool) public callers;\n\n    modifier onlyOwner {\n        require (msg.sender == owner);\n        _;\n    }\n\n    modifier isCaller {\n        require(callers[msg.sender]);\n        _;\n    }\n\n    function init(address _owner, bytes32 _name) public {\n        require(_owner != address(0), \"Param(_owner) is null\");\n        require(owner == address(0), \"Already has owner\");\n\n        owner = _owner;\n        name = _name;\n        callers[_owner] = true;\n    }\n\n    function addCaller(address _caller) public onlyOwner {\n        require(!callers[_caller], \"Caller is regitered!\");\n        \n        callers[_caller] = true;\n    }\n\n    function addRepo(address _repo) public onlyOwner {\n        require(repo == address(0));\n        require(_repo != address(0));\n\n        repo = _repo;\n    }\n\n    function doWork(bytes32[] _itemHashes, bytes32[] _ipfsHashes) public {\n        require(_itemHashes.length == _ipfsHashes.length);\n        \n        // do some work ....\n\n        ItemRepo _repo = ItemRepo(repo);\n        _repo.addUpdateItemData(_itemHashes, _ipfsHashes);\n\n        emit DoWork(address(this));\n    }\n}",
  "sourcePath": "/Users/alekseytsekov/Documents/projects/supplyChainDemo/smartContracts/contracts/workers/Worker.sol",
  "compiler": {
    "name": "solc",
    "version": "0.4.24+commit.e67f0147.Emscripten.clang"
  },
  "schemaVersion": "2.0.1",
  "updatedAt": "2018-07-23T14:31:42.791Z"
}